{
  "contractName": "Quiz",
  "abi": [
    {
      "constant": false,
      "inputs": [
        {
          "name": "a0",
          "type": "string"
        },
        {
          "name": "a1",
          "type": "string"
        },
        {
          "name": "a2",
          "type": "string"
        },
        {
          "name": "a3",
          "type": "string"
        },
        {
          "name": "a4",
          "type": "string"
        },
        {
          "name": "a5",
          "type": "string"
        }
      ],
      "name": "submitYourAnswers",
      "outputs": [
        {
          "name": "",
          "type": "bool"
        }
      ],
      "payable": false,
      "stateMutability": "nonpayable",
      "type": "function"
    },
    {
      "constant": true,
      "inputs": [
        {
          "name": "index",
          "type": "uint256"
        },
        {
          "name": "answer",
          "type": "string"
        }
      ],
      "name": "checkAnswer",
      "outputs": [
        {
          "name": "",
          "type": "bool"
        }
      ],
      "payable": false,
      "stateMutability": "view",
      "type": "function"
    },
    {
      "constant": true,
      "inputs": [
        {
          "name": "",
          "type": "uint256"
        }
      ],
      "name": "questions",
      "outputs": [
        {
          "name": "",
          "type": "string"
        }
      ],
      "payable": false,
      "stateMutability": "view",
      "type": "function"
    },
    {
      "constant": true,
      "inputs": [
        {
          "name": "a0",
          "type": "string"
        },
        {
          "name": "a1",
          "type": "string"
        },
        {
          "name": "a2",
          "type": "string"
        },
        {
          "name": "a3",
          "type": "string"
        },
        {
          "name": "a4",
          "type": "string"
        },
        {
          "name": "a5",
          "type": "string"
        }
      ],
      "name": "checkAllAnswers",
      "outputs": [
        {
          "name": "",
          "type": "bool"
        }
      ],
      "payable": false,
      "stateMutability": "view",
      "type": "function"
    },
    {
      "constant": true,
      "inputs": [],
      "name": "numberOfQuestions",
      "outputs": [
        {
          "name": "",
          "type": "uint256"
        }
      ],
      "payable": false,
      "stateMutability": "view",
      "type": "function"
    },
    {
      "constant": true,
      "inputs": [],
      "name": "claimed",
      "outputs": [
        {
          "name": "",
          "type": "bool"
        }
      ],
      "payable": false,
      "stateMutability": "view",
      "type": "function"
    },
    {
      "constant": false,
      "inputs": [
        {
          "name": "question",
          "type": "string"
        },
        {
          "name": "answer",
          "type": "bytes"
        },
        {
          "name": "index",
          "type": "uint256"
        }
      ],
      "name": "updateQuestionAndAnswer",
      "outputs": [],
      "payable": false,
      "stateMutability": "nonpayable",
      "type": "function"
    },
    {
      "constant": false,
      "inputs": [
        {
          "name": "to",
          "type": "address"
        }
      ],
      "name": "refund",
      "outputs": [],
      "payable": false,
      "stateMutability": "nonpayable",
      "type": "function"
    },
    {
      "inputs": [],
      "payable": false,
      "stateMutability": "nonpayable",
      "type": "constructor"
    },
    {
      "payable": true,
      "stateMutability": "payable",
      "type": "fallback"
    }
  ],
  "bytecode": "0x606060405234156200001057600080fd5b336000806101000a81548173ffffffffffffffffffffffffffffffffffffffff021916908373ffffffffffffffffffffffffffffffffffffffff1602179055506000602860006101000a81548160ff02191690831515021790555073b144024e2b9f86249574fb3e74bddfe17813cd3060026000601a811015156200009157fe5b0160006101000a81548173ffffffffffffffffffffffffffffffffffffffff021916908373ffffffffffffffffffffffffffffffffffffffff16021790555073cc62a08e24e75bfdb00733d17f43fbc57c5da24260026001601a81101515620000f657fe5b0160006101000a81548173ffffffffffffffffffffffffffffffffffffffff021916908373ffffffffffffffffffffffffffffffffffffffff160217905550734e57621ea5674dfc56731439f9fb8d0935541c56600280601a811015156200015a57fe5b0160006101000a81548173ffffffffffffffffffffffffffffffffffffffff021916908373ffffffffffffffffffffffffffffffffffffffff16021790555073cf852ba1b11086c184b70a66360f1081ba3ad1a860026003601a81101515620001bf57fe5b0160006101000a81548173ffffffffffffffffffffffffffffffffffffffff021916908373ffffffffffffffffffffffffffffffffffffffff16021790555073f85c3026fcc18a3b210df59555a7f30dd933f10d60026004601a811015156200022457fe5b0160006101000a81548173ffffffffffffffffffffffffffffffffffffffff021916908373ffffffffffffffffffffffffffffffffffffffff16021790555073b71abeeaeb3f1173c45852d2d9dd9e22886b0df660026005601a811015156200028957fe5b0160006101000a81548173ffffffffffffffffffffffffffffffffffffffff021916908373ffffffffffffffffffffffffffffffffffffffff160217905550737792b7ed85da6710504949e87fb8d14ad5dc66ae60026006601a81101515620002ee57fe5b0160006101000a81548173ffffffffffffffffffffffffffffffffffffffff021916908373ffffffffffffffffffffffffffffffffffffffff16021790555073ae471d927bdc4859a99e1ca4f6110cc3628ac7d060026007601a811015156200035357fe5b0160006101000a81548173ffffffffffffffffffffffffffffffffffffffff021916908373ffffffffffffffffffffffffffffffffffffffff16021790555073a557414726513a92d6f827f460ac47463d362ff060026008601a81101515620003b857fe5b0160006101000a81548173ffffffffffffffffffffffffffffffffffffffff021916908373ffffffffffffffffffffffffffffffffffffffff16021790555073d6500df4c703b2139c9b0f3779faf44e2a1caea660026009601a811015156200041d57fe5b0160006101000a81548173ffffffffffffffffffffffffffffffffffffffff021916908373ffffffffffffffffffffffffffffffffffffffff16021790555073ae471d927bdc4859a99e1ca4f6110cc3628ac7d06002600a601a811015156200048257fe5b0160006101000a81548173ffffffffffffffffffffffffffffffffffffffff021916908373ffffffffffffffffffffffffffffffffffffffff160217905550739b0c352b8111958f6cb4f6e08fba3a2b343d3a2c6002600b601a81101515620004e757fe5b0160006101000a81548173ffffffffffffffffffffffffffffffffffffffff021916908373ffffffffffffffffffffffffffffffffffffffff16021790555073cc7a1d643714f9b7159d3d5339f58640e05842556002600c601a811015156200054c57fe5b0160006101000a81548173ffffffffffffffffffffffffffffffffffffffff021916908373ffffffffffffffffffffffffffffffffffffffff16021790555073f19349b488221160760c02c789bf2380e14994426002600d601a81101515620005b157fe5b0160006101000a81548173ffffffffffffffffffffffffffffffffffffffff021916908373ffffffffffffffffffffffffffffffffffffffff16021790555073d33a015476c8a7f28d68cf179813ffc643295aba6002600e601a811015156200061657fe5b0160006101000a81548173ffffffffffffffffffffffffffffffffffffffff021916908373ffffffffffffffffffffffffffffffffffffffff16021790555073f5e75aaa8986d5412adda254da8b6f8f00e4fac46002600f601a811015156200067b57fe5b0160006101000a81548173ffffffffffffffffffffffffffffffffffffffff021916908373ffffffffffffffffffffffffffffffffffffffff1602179055507358232c5a2ddb6df823b21a8c58770d1407c55e2760026010601a81101515620006e057fe5b0160006101000a81548173ffffffffffffffffffffffffffffffffffffffff021916908373ffffffffffffffffffffffffffffffffffffffff160217905550737b1f482b08c3cc5e967b48cbaab7ce54f25adc5660026011601a811015156200074557fe5b0160006101000a81548173ffffffffffffffffffffffffffffffffffffffff021916908373ffffffffffffffffffffffffffffffffffffffff16021790555073ae471d927bdc4859a99e1ca4f6110cc3628ac7d060026012601a81101515620007aa57fe5b0160006101000a81548173ffffffffffffffffffffffffffffffffffffffff021916908373ffffffffffffffffffffffffffffffffffffffff160217905550734ec8645e682995fab6a092346980c673139822e460026013601a811015156200080f57fe5b0160006101000a81548173ffffffffffffffffffffffffffffffffffffffff021916908373ffffffffffffffffffffffffffffffffffffffff16021790555073ae471d927bdc4859a99e1ca4f6110cc3628ac7d060026014601a811015156200087457fe5b0160006101000a81548173ffffffffffffffffffffffffffffffffffffffff021916908373ffffffffffffffffffffffffffffffffffffffff160217905550739b0c352b8111958f6cb4f6e08fba3a2b343d3a2c60026015601a81101515620008d957fe5b0160006101000a81548173ffffffffffffffffffffffffffffffffffffffff021916908373ffffffffffffffffffffffffffffffffffffffff16021790555073ebe3d3fdc9e4e30a0416e4ee5d821603d6c3f72860026016601a811015156200093e57fe5b0160006101000a81548173ffffffffffffffffffffffffffffffffffffffff021916908373ffffffffffffffffffffffffffffffffffffffff160217905550735536731010446febb3d681760d290eb6ced493a260026017601a81101515620009a357fe5b0160006101000a81548173ffffffffffffffffffffffffffffffffffffffff021916908373ffffffffffffffffffffffffffffffffffffffff160217905550739b0c352b8111958f6cb4f6e08fba3a2b343d3a2c60026018601a8110151562000a0857fe5b0160006101000a81548173ffffffffffffffffffffffffffffffffffffffff021916908373ffffffffffffffffffffffffffffffffffffffff1602179055507358232c5a2ddb6df823b21a8c58770d1407c55e2760026019601a8110151562000a6d57fe5b0160006101000a81548173ffffffffffffffffffffffffffffffffffffffff021916908373ffffffffffffffffffffffffffffffffffffffff160217905550606060405190810160405280604081526020017f5768617420697320746865206e6574776f726b204944206e756d626572206f6681526020017f20746865207075626c696320657468657265756d20626c6f636b636861696e3f815250601c600060068110151562000b1a57fe5b01908051906020019062000b3092919062001002565b507fc89efdaa54c0f20c7adf612882df0950f5a951637e0307cdcb4c672f298b8bc66001026022600060068110151562000b6657fe5b018160001916905550606060405190810160405280602b81526020017f57686174206973206675656c206f6620746865206574686572756d206e65747781526020017f6f726b2063616c6c65643f000000000000000000000000000000000000000000815250601c600160068110151562000bdd57fe5b01908051906020019062000bf392919062001002565b507f4498c2139ad6cf2beef3ae7bec34c4856d471c8680dfd28d553f117df74df6b76001026022600160068110151562000c2957fe5b018160001916905550606060405190810160405280603881526020017f5768617420697320746865206e616d65206f6620746865204a6176615363726981526020017f707420537461636b2064617070206672616d65776f726b3f0000000000000000815250601c600260068110151562000ca057fe5b01908051906020019062000cb692919062001002565b507f28610e27d085e348e6ebd0da2c982947eddf7d308b82e951a896432cdac99a746001026022600260068110151562000cec57fe5b01816000191690555060a060405190810160405280607581526020017f5768617420697320746865206e616d65206f6620746865206e616d65206f662081526020017f736f667477617265207468617420616c6c6f777320796f7520746f206465706c81526020017f6f7920616e6420646576656c6f706d656e7420626c6f636b636861696e206f6e81526020017f20796f7572206c6f63616c20636f6d70757465723f0000000000000000000000815250601c600360068110151562000daf57fe5b01908051906020019062000dc592919062001002565b507f0bdc38f1a57daae7b3c874f2d50314c08c68bd340dd018c1072ee23f3a6d72c06001026022600360068110151562000dfb57fe5b018160001916905550608060405190810160405280605a81526020017f5768617420697320746865206f66206d61696e20736d61727420636f6e74726181526020017f6374696e67206c616e6775616765206f6e207468652067656e6572616c20707581526020017f72706f736520657468657265756d20626c6f636b636861696e3f000000000000815250601c600460068110151562000e9857fe5b01908051906020019062000eae92919062001002565b507fa477d97b122e6356d32a064f9ee824230d42d04c7d66d8e7d125a091a42b0b256001026022600460068110151562000ee457fe5b01816000191690555060a060405190810160405280607b81526020017f5768617420697320746865206e616d65206f6620746865206368726f6d65206581526020017f7874656e73696f6e207468617420616c6c6f777320796f7520746f206163636581526020017f73732077656233206f626a65637420746f2062726f61646361737420746f207481526020017f6865207075626c696320657468657265756d206e6574776f726b3f0000000000815250601c600560068110151562000fa757fe5b01908051906020019062000fbd92919062001002565b507f69edc0ff6c1e084ebd1295782a6c284c57eda43f402b6ecc23762b93168128886001026022600560068110151562000ff357fe5b018160001916905550620010b1565b828054600181600116156101000203166002900490600052602060002090601f016020900481019282601f106200104557805160ff191683800117855562001076565b8280016001018555821562001076579182015b828111156200107557825182559160200191906001019062001058565b5b50905062001085919062001089565b5090565b620010ae91905b80821115620010aa57600081600090555060010162001090565b5090565b90565b611b8b80620010c16000396000f30060606040526004361061008e576000357c0100000000000000000000000000000000000000000000000000000000900463ffffffff16806312a08e9f1461009057806315f0f7351461025457806331b1b978146102d257806349a1837b1461036e578063b4594c3614610532578063e834a8341461055b578063f1dfd6a914610588578063fa89401a14610631575b005b341561009b57600080fd5b61023a600480803590602001908201803590602001908080601f0160208091040260200160405190810160405280939291908181526020018383808284378201915050505050509190803590602001908201803590602001908080601f0160208091040260200160405190810160405280939291908181526020018383808284378201915050505050509190803590602001908201803590602001908080601f0160208091040260200160405190810160405280939291908181526020018383808284378201915050505050509190803590602001908201803590602001908080601f0160208091040260200160405190810160405280939291908181526020018383808284378201915050505050509190803590602001908201803590602001908080601f0160208091040260200160405190810160405280939291908181526020018383808284378201915050505050509190803590602001908201803590602001908080601f0160208091040260200160405190810160405280939291908181526020018383808284378201915050505050509190505061066a565b604051808215151515815260200191505060405180910390f35b341561025f57600080fd5b6102b8600480803590602001909190803590602001908201803590602001908080601f01602080910402602001604051908101604052809392919081815260200183838082843782019150505050505091905050611465565b604051808215151515815260200191505060405180910390f35b34156102dd57600080fd5b6102f360048080359060200190919050506114f1565b6040518080602001828103825283818151815260200191508051906020019080838360005b83811015610333578082015181840152602081019050610318565b50505050905090810190601f1680156103605780820380516001836020036101000a031916815260200191505b509250505060405180910390f35b341561037957600080fd5b610518600480803590602001908201803590602001908080601f0160208091040260200160405190810160405280939291908181526020018383808284378201915050505050509190803590602001908201803590602001908080601f0160208091040260200160405190810160405280939291908181526020018383808284378201915050505050509190803590602001908201803590602001908080601f0160208091040260200160405190810160405280939291908181526020018383808284378201915050505050509190803590602001908201803590602001908080601f0160208091040260200160405190810160405280939291908181526020018383808284378201915050505050509190803590602001908201803590602001908080601f0160208091040260200160405190810160405280939291908181526020018383808284378201915050505050509190803590602001908201803590602001908080601f016020809104026020016040519081016040528093929190818152602001838380828437820191505050505050919050506115a3565b604051808215151515815260200191505060405180910390f35b341561053d57600080fd5b6105456118e9565b6040518082815260200191505060405180910390f35b341561056657600080fd5b61056e6118f2565b604051808215151515815260200191505060405180910390f35b341561059357600080fd5b61062f600480803590602001908201803590602001908080601f0160208091040260200160405190810160405280939291908181526020018383808284378201915050505050509190803590602001908201803590602001908080601f01602080910402602001604051908101604052809392919081815260200183838082843782019150505050505091908035906020019091905050611905565b005b341561063c57600080fd5b610668600480803573ffffffffffffffffffffffffffffffffffffffff16906020019091905050611a05565b005b600060026000601a8110151561067c57fe5b0160009054906101000a900473ffffffffffffffffffffffffffffffffffffffff1673ffffffffffffffffffffffffffffffffffffffff163373ffffffffffffffffffffffffffffffffffffffff161480610733575060026001601a811015156106e257fe5b0160009054906101000a900473ffffffffffffffffffffffffffffffffffffffff1673ffffffffffffffffffffffffffffffffffffffff163373ffffffffffffffffffffffffffffffffffffffff16145b806107995750600280601a8110151561074857fe5b0160009054906101000a900473ffffffffffffffffffffffffffffffffffffffff1673ffffffffffffffffffffffffffffffffffffffff163373ffffffffffffffffffffffffffffffffffffffff16145b80610800575060026003601a811015156107af57fe5b0160009054906101000a900473ffffffffffffffffffffffffffffffffffffffff1673ffffffffffffffffffffffffffffffffffffffff163373ffffffffffffffffffffffffffffffffffffffff16145b80610867575060026004601a8110151561081657fe5b0160009054906101000a900473ffffffffffffffffffffffffffffffffffffffff1673ffffffffffffffffffffffffffffffffffffffff163373ffffffffffffffffffffffffffffffffffffffff16145b806108ce575060026005601a8110151561087d57fe5b0160009054906101000a900473ffffffffffffffffffffffffffffffffffffffff1673ffffffffffffffffffffffffffffffffffffffff163373ffffffffffffffffffffffffffffffffffffffff16145b80610935575060026006601a811015156108e457fe5b0160009054906101000a900473ffffffffffffffffffffffffffffffffffffffff1673ffffffffffffffffffffffffffffffffffffffff163373ffffffffffffffffffffffffffffffffffffffff16145b8061099c575060026007601a8110151561094b57fe5b0160009054906101000a900473ffffffffffffffffffffffffffffffffffffffff1673ffffffffffffffffffffffffffffffffffffffff163373ffffffffffffffffffffffffffffffffffffffff16145b80610a03575060026008601a811015156109b257fe5b0160009054906101000a900473ffffffffffffffffffffffffffffffffffffffff1673ffffffffffffffffffffffffffffffffffffffff163373ffffffffffffffffffffffffffffffffffffffff16145b80610a6a575060026009601a81101515610a1957fe5b0160009054906101000a900473ffffffffffffffffffffffffffffffffffffffff1673ffffffffffffffffffffffffffffffffffffffff163373ffffffffffffffffffffffffffffffffffffffff16145b80610ad157506002600a601a81101515610a8057fe5b0160009054906101000a900473ffffffffffffffffffffffffffffffffffffffff1673ffffffffffffffffffffffffffffffffffffffff163373ffffffffffffffffffffffffffffffffffffffff16145b80610b3857506002600b601a81101515610ae757fe5b0160009054906101000a900473ffffffffffffffffffffffffffffffffffffffff1673ffffffffffffffffffffffffffffffffffffffff163373ffffffffffffffffffffffffffffffffffffffff16145b80610b9f57506002600c601a81101515610b4e57fe5b0160009054906101000a900473ffffffffffffffffffffffffffffffffffffffff1673ffffffffffffffffffffffffffffffffffffffff163373ffffffffffffffffffffffffffffffffffffffff16145b80610c0657506002600d601a81101515610bb557fe5b0160009054906101000a900473ffffffffffffffffffffffffffffffffffffffff1673ffffffffffffffffffffffffffffffffffffffff163373ffffffffffffffffffffffffffffffffffffffff16145b80610c6d57506002600e601a81101515610c1c57fe5b0160009054906101000a900473ffffffffffffffffffffffffffffffffffffffff1673ffffffffffffffffffffffffffffffffffffffff163373ffffffffffffffffffffffffffffffffffffffff16145b80610cd457506002600f601a81101515610c8357fe5b0160009054906101000a900473ffffffffffffffffffffffffffffffffffffffff1673ffffffffffffffffffffffffffffffffffffffff163373ffffffffffffffffffffffffffffffffffffffff16145b80610d3b575060026010601a81101515610cea57fe5b0160009054906101000a900473ffffffffffffffffffffffffffffffffffffffff1673ffffffffffffffffffffffffffffffffffffffff163373ffffffffffffffffffffffffffffffffffffffff16145b80610da2575060026011601a81101515610d5157fe5b0160009054906101000a900473ffffffffffffffffffffffffffffffffffffffff1673ffffffffffffffffffffffffffffffffffffffff163373ffffffffffffffffffffffffffffffffffffffff16145b80610e09575060026012601a81101515610db857fe5b0160009054906101000a900473ffffffffffffffffffffffffffffffffffffffff1673ffffffffffffffffffffffffffffffffffffffff163373ffffffffffffffffffffffffffffffffffffffff16145b80610e70575060026013601a81101515610e1f57fe5b0160009054906101000a900473ffffffffffffffffffffffffffffffffffffffff1673ffffffffffffffffffffffffffffffffffffffff163373ffffffffffffffffffffffffffffffffffffffff16145b80610ed7575060026014601a81101515610e8657fe5b0160009054906101000a900473ffffffffffffffffffffffffffffffffffffffff1673ffffffffffffffffffffffffffffffffffffffff163373ffffffffffffffffffffffffffffffffffffffff16145b80610f3e575060026016601a81101515610eed57fe5b0160009054906101000a900473ffffffffffffffffffffffffffffffffffffffff1673ffffffffffffffffffffffffffffffffffffffff163373ffffffffffffffffffffffffffffffffffffffff16145b80610fa5575060026017601a81101515610f5457fe5b0160009054906101000a900473ffffffffffffffffffffffffffffffffffffffff1673ffffffffffffffffffffffffffffffffffffffff163373ffffffffffffffffffffffffffffffffffffffff16145b8061100c575060026018601a81101515610fbb57fe5b0160009054906101000a900473ffffffffffffffffffffffffffffffffffffffff1673ffffffffffffffffffffffffffffffffffffffff163373ffffffffffffffffffffffffffffffffffffffff16145b80611073575060026019601a8110151561102257fe5b0160009054906101000a900473ffffffffffffffffffffffffffffffffffffffff1673ffffffffffffffffffffffffffffffffffffffff163373ffffffffffffffffffffffffffffffffffffffff16145b151561107e57600080fd5b60011515602860009054906101000a900460ff161515141515156110a157600080fd5b866040518082805190602001908083835b6020831015156110d757805182526020820191506020810190506020830392506110b2565b6001836020036101000a0380198251168184511680821785525050505050509050019150506040518091039020600019166022600060068110151561111857fe5b01546000191614151561112a57600080fd5b856040518082805190602001908083835b602083101515611160578051825260208201915060208101905060208303925061113b565b6001836020036101000a038019825116818451168082178552505050505050905001915050604051809103902060001916602260016006811015156111a157fe5b0154600019161415156111b357600080fd5b846040518082805190602001908083835b6020831015156111e957805182526020820191506020810190506020830392506111c4565b6001836020036101000a0380198251168184511680821785525050505050509050019150506040518091039020600019166022600260068110151561122a57fe5b01546000191614151561123c57600080fd5b836040518082805190602001908083835b602083101515611272578051825260208201915060208101905060208303925061124d565b6001836020036101000a038019825116818451168082178552505050505050905001915050604051809103902060001916602260036006811015156112b357fe5b0154600019161415156112c557600080fd5b826040518082805190602001908083835b6020831015156112fb57805182526020820191506020810190506020830392506112d6565b6001836020036101000a0380198251168184511680821785525050505050509050019150506040518091039020600019166022600460068110151561133c57fe5b01546000191614151561134e57600080fd5b816040518082805190602001908083835b602083101515611384578051825260208201915060208101905060208303925061135f565b6001836020036101000a038019825116818451168082178552505050505050905001915050604051809103902060001916602260056006811015156113c557fe5b0154600019161415156113d757600080fd5b6001602860006101000a81548160ff0219169083151502179055503373ffffffffffffffffffffffffffffffffffffffff166108fc3073ffffffffffffffffffffffffffffffffffffffff16319081150290604051600060405180830381858888f19350505050151561144957600080fd5b602860009054906101000a900460ff1690509695505050505050565b600080826040518082805190602001908083835b60208310151561149e5780518252602082019150602081019050602083039250611479565b6001836020036101000a0380198251168184511680821785525050505050509050019150506040518091039020905080600019166022856006811015156114e157fe5b0154600019161491505092915050565b601c8160068110151561150057fe5b016000915090508054600181600116156101000203166002900480601f01602080910402602001604051908101604052809291908181526020018280546001816001161561010002031660029004801561159b5780601f106115705761010080835404028352916020019161159b565b820191906000526020600020905b81548152906001019060200180831161157e57829003601f168201915b505050505081565b6000866040518082805190602001908083835b6020831015156115db57805182526020820191506020810190506020830392506115b6565b6001836020036101000a0380198251168184511680821785525050505050509050019150506040518091039020600019166022600060068110151561161c57fe5b01546000191614151561162e57600080fd5b856040518082805190602001908083835b602083101515611664578051825260208201915060208101905060208303925061163f565b6001836020036101000a038019825116818451168082178552505050505050905001915050604051809103902060001916602260016006811015156116a557fe5b0154600019161415156116b757600080fd5b846040518082805190602001908083835b6020831015156116ed57805182526020820191506020810190506020830392506116c8565b6001836020036101000a0380198251168184511680821785525050505050509050019150506040518091039020600019166022600260068110151561172e57fe5b01546000191614151561174057600080fd5b836040518082805190602001908083835b6020831015156117765780518252602082019150602081019050602083039250611751565b6001836020036101000a038019825116818451168082178552505050505050905001915050604051809103902060001916602260036006811015156117b757fe5b0154600019161415156117c957600080fd5b826040518082805190602001908083835b6020831015156117ff57805182526020820191506020810190506020830392506117da565b6001836020036101000a0380198251168184511680821785525050505050509050019150506040518091039020600019166022600460068110151561184057fe5b01546000191614151561185257600080fd5b816040518082805190602001908083835b6020831015156118885780518252602082019150602081019050602083039250611863565b6001836020036101000a038019825116818451168082178552505050505050905001915050604051809103902060001916602260056006811015156118c957fe5b0154600019161415156118db57600080fd5b600190509695505050505050565b60006006905090565b602860009054906101000a900460ff1681565b6000809054906101000a900473ffffffffffffffffffffffffffffffffffffffff1673ffffffffffffffffffffffffffffffffffffffff163373ffffffffffffffffffffffffffffffffffffffff1614151561196057600080fd5b82601c8260068110151561197057fe5b019080519060200190611984929190611aba565b50816040518082805190602001908083835b6020831015156119bb5780518252602082019150602081019050602083039250611996565b6001836020036101000a03801982511681845116808217855250505050505090500191505060405180910390206022826006811015156119f757fe5b018160001916905550505050565b6000809054906101000a900473ffffffffffffffffffffffffffffffffffffffff1673ffffffffffffffffffffffffffffffffffffffff163373ffffffffffffffffffffffffffffffffffffffff16141515611a6057600080fd5b8073ffffffffffffffffffffffffffffffffffffffff166108fc3073ffffffffffffffffffffffffffffffffffffffff16319081150290604051600060405180830381858888f193505050501515611ab757600080fd5b50565b828054600181600116156101000203166002900490600052602060002090601f016020900481019282601f10611afb57805160ff1916838001178555611b29565b82800160010185558215611b29579182015b82811115611b28578251825591602001919060010190611b0d565b5b509050611b369190611b3a565b5090565b611b5c91905b80821115611b58576000816000905550600101611b40565b5090565b905600a165627a7a723058204887a1089d498ba75ce647da61597c587062d2966045124b6e8333b6f110b6110029",
  "source": "pragma solidity ^0.4.18;\n\ncontract Quiz {\n    address private owner;\n    uint256 private expires;\n    address[26] private participants; // list of participants that can submit answers.\n\n    string[6] public questions;\n    bytes32[6] private answers;\n\n    bool public claimed;\n\n    function Quiz() public {\n        owner = msg.sender;\n        // expires = now + 2 days;\n        claimed = false;\n\n        participants[0] = 0xB144024e2B9f86249574fB3e74BDDfE17813CD30; // TomAccount 1\n        participants[1] = 0xcC62A08E24e75BfDb00733D17F43fbC57C5da242; // TomAccount 2\n\n        participants[2] = 0x4e57621ea5674dfc56731439f9fb8d0935541c56; // Start of Participant Accounts\n        participants[3] = 0xcf852Ba1B11086c184B70a66360f1081ba3ad1a8;\n        participants[4] = 0xF85c3026fCC18A3B210Df59555A7F30Dd933f10d;\n        participants[5] = 0xb71abeeaeb3f1173c45852d2d9dd9e22886b0df6;\n        participants[6] = 0x7792b7ed85da6710504949e87fb8d14ad5dc66ae;\n        participants[7] = 0xAe471D927BDc4859A99e1CA4F6110cc3628ac7d0;\n        participants[8] = 0xa557414726513a92d6f827f460ac47463d362ff0;\n        participants[9] = 0xD6500dF4c703B2139c9B0F3779FAF44e2a1CaEa6;\n        participants[10] = 0xAe471D927BDc4859A99e1CA4F6110cc3628ac7d0;\n        participants[11] = 0x9b0c352b8111958f6cb4f6e08fba3a2b343d3a2c;\n        participants[12] = 0xcC7A1D643714f9b7159D3D5339F58640E0584255;\n        participants[13] = 0xF19349B488221160760c02C789Bf2380E1499442;\n        participants[14] = 0xD33a015476C8a7f28d68cf179813ffC643295abA;\n        participants[15] = 0xF5e75aAa8986D5412addA254da8b6f8F00E4Fac4;\n        participants[16] = 0x58232c5a2ddB6DF823B21a8C58770D1407c55E27;\n        participants[17] = 0x7B1F482b08C3Cc5E967b48cbaAb7Ce54f25AdC56;\n        participants[18] = 0xAe471D927BDc4859A99e1CA4F6110cc3628ac7d0;\n        participants[19] = 0x4ec8645e682995FAb6A092346980c673139822E4;\n        participants[20] = 0xAe471D927BDc4859A99e1CA4F6110cc3628ac7d0;\n        participants[21] = 0x9b0c352b8111958f6cb4f6e08fba3a2b343d3a2c;\n        participants[22] = 0xebE3D3fDc9E4E30a0416E4Ee5D821603d6c3F728;\n        participants[23] = 0x5536731010446febB3D681760d290eb6CeD493A2;\n        participants[24] = 0x9b0c352b8111958f6cb4f6e08fba3a2b343d3a2c;\n        participants[25] = 0x58232c5a2ddB6DF823B21a8C58770D1407c55E27;\n\n\n\n\n\n\n        questions[0] = \"What is the network ID number of the public ethereum blockchain?\";\n        answers[0] = 0xc89efdaa54c0f20c7adf612882df0950f5a951637e0307cdcb4c672f298b8bc6;\n\n        questions[1] = \"What is fuel of the etherum network called?\";\n        answers[1] = 0x4498c2139ad6cf2beef3ae7bec34c4856d471c8680dfd28d553f117df74df6b7;\n        \n        questions[2] = \"What is the name of the JavaScript Stack dapp framework?\";\n        answers[2] = 0x28610e27d085e348e6ebd0da2c982947eddf7d308b82e951a896432cdac99a74;\n        \n        questions[3] = \"What is the name of the name of software that allows you to deploy and development blockchain on your local computer?\";\n        answers[3] = 0x0bdc38f1a57daae7b3c874f2d50314c08c68bd340dd018c1072ee23f3a6d72c0;\n        \n        questions[4] = \"What is the of main smart contracting language on the general purpose ethereum blockchain?\";\n        answers[4] = 0xa477d97b122e6356d32a064f9ee824230d42d04c7d66d8e7d125a091a42b0b25;\n        \n        questions[5] = \"What is the name of the chrome extension that allows you to access web3 object to broadcast to the public ethereum network?\";\n        answers[5] = 0x69edc0ff6c1e084ebd1295782a6c284c57eda43f402b6ecc23762b9316812888;\n\n    }\n\n    function numberOfQuestions() public constant returns (uint256) {\n        return questions.length;\n    }\n\n    function updateQuestionAndAnswer(string question, bytes answer, uint index) public onlyOwner {\n        questions[index] = question;\n        answers[index] = keccak256(answer);\n    }\n\n    function checkAnswer(uint index, string answer) public constant returns(bool) {\n        bytes32 hashedAnswer = keccak256(answer);\n        return answers[index] == hashedAnswer;\n    }\n\n    function checkAllAnswers(string a0, string a1, string a2, string a3, string a4, string a5) public constant returns(bool) {\n        require(answers[0] == keccak256(a0));\n        require(answers[1] == keccak256(a1));\n        require(answers[2] == keccak256(a2));\n        require(answers[3] == keccak256(a3));\n        require(answers[4] == keccak256(a4));\n        require(answers[5] == keccak256(a5));\n        return true;\n    }\n\n        //this function requires you to be whitelisted\n    function submitYourAnswers(string a0, string a1, string a2, string a3, string a4, string a5) public onlyParticipants returns(bool) {\n        require(claimed != true);\n\n        require(answers[0] == keccak256(a0));\n        require(answers[1] == keccak256(a1));\n        require(answers[2] == keccak256(a2));\n        require(answers[3] == keccak256(a3));\n        require(answers[4] == keccak256(a4));\n        require(answers[5] == keccak256(a5));\n\n        claimed = true;\n        msg.sender.transfer(this.balance);\n        return claimed;\n    }\n\n    function () public payable {\n    }\n\n    function refund(address to) public onlyOwner {\n        // require(claimed != true);\n        // require(now > expires + 1 days);\n        \n        to.transfer(this.balance);\n    }\n\n    modifier onlyOwner() {\n        require(msg.sender == owner);\n        _;\n    }\n\n    modifier onlyParticipants() {\n        require (\n            msg.sender == participants[0] || \n            msg.sender == participants[1] ||\n            msg.sender == participants[2] ||\n            msg.sender == participants[3] ||\n            msg.sender == participants[4] ||\n            msg.sender == participants[5] ||\n            msg.sender == participants[6] ||\n            msg.sender == participants[7] ||\n            msg.sender == participants[8] ||\n            msg.sender == participants[9] ||\n            msg.sender == participants[10] ||\n            msg.sender == participants[11] ||\n            msg.sender == participants[12] ||\n            msg.sender == participants[13] ||\n            msg.sender == participants[14] ||\n            msg.sender == participants[15] ||\n            msg.sender == participants[16] ||\n            msg.sender == participants[17] ||\n            msg.sender == participants[18] ||\n            msg.sender == participants[19] ||\n            msg.sender == participants[20] ||\n            msg.sender == participants[22] ||\n            msg.sender == participants[23] ||\n            msg.sender == participants[24] ||\n            msg.sender == participants[25]\n        );\n        _;\n    }\n    \n    \n}",
  "sourcePath": "/Users/thomasmiller/projects/unionbank/quiz/contracts/Quiz.sol",
  "compiler": {
    "name": "solc",
    "version": "0.4.18+commit.9cf6e910.Emscripten.clang"
  },
  "schemaVersion": "1.0.1",
  "updatedAt": "2018-01-25T23:00:42.584Z"
}