{
  "contractName": "Quiz",
  "abi": [
    {
      "constant": false,
      "inputs": [
        {
          "name": "a0",
          "type": "string"
        },
        {
          "name": "a1",
          "type": "string"
        },
        {
          "name": "a2",
          "type": "string"
        },
        {
          "name": "a3",
          "type": "string"
        },
        {
          "name": "a4",
          "type": "string"
        },
        {
          "name": "a5",
          "type": "string"
        }
      ],
      "name": "submitYourAnswers",
      "outputs": [
        {
          "name": "",
          "type": "bool"
        }
      ],
      "payable": false,
      "stateMutability": "nonpayable",
      "type": "function"
    },
    {
      "constant": true,
      "inputs": [
        {
          "name": "index",
          "type": "uint256"
        },
        {
          "name": "answer",
          "type": "string"
        }
      ],
      "name": "checkAnswer",
      "outputs": [
        {
          "name": "",
          "type": "bool"
        }
      ],
      "payable": false,
      "stateMutability": "view",
      "type": "function"
    },
    {
      "constant": true,
      "inputs": [
        {
          "name": "",
          "type": "uint256"
        }
      ],
      "name": "questions",
      "outputs": [
        {
          "name": "",
          "type": "string"
        }
      ],
      "payable": false,
      "stateMutability": "view",
      "type": "function"
    },
    {
      "constant": true,
      "inputs": [
        {
          "name": "a0",
          "type": "string"
        },
        {
          "name": "a1",
          "type": "string"
        },
        {
          "name": "a2",
          "type": "string"
        },
        {
          "name": "a3",
          "type": "string"
        },
        {
          "name": "a4",
          "type": "string"
        },
        {
          "name": "a5",
          "type": "string"
        }
      ],
      "name": "checkAllAnswers",
      "outputs": [
        {
          "name": "",
          "type": "bool"
        }
      ],
      "payable": false,
      "stateMutability": "view",
      "type": "function"
    },
    {
      "constant": true,
      "inputs": [],
      "name": "numberOfQuestions",
      "outputs": [
        {
          "name": "",
          "type": "uint256"
        }
      ],
      "payable": false,
      "stateMutability": "view",
      "type": "function"
    },
    {
      "constant": true,
      "inputs": [],
      "name": "claimed",
      "outputs": [
        {
          "name": "",
          "type": "bool"
        }
      ],
      "payable": false,
      "stateMutability": "view",
      "type": "function"
    },
    {
      "constant": false,
      "inputs": [
        {
          "name": "question",
          "type": "string"
        },
        {
          "name": "answer",
          "type": "bytes"
        },
        {
          "name": "index",
          "type": "uint256"
        }
      ],
      "name": "updateQuestionAndAnswer",
      "outputs": [],
      "payable": false,
      "stateMutability": "nonpayable",
      "type": "function"
    },
    {
      "constant": false,
      "inputs": [
        {
          "name": "to",
          "type": "address"
        }
      ],
      "name": "refund",
      "outputs": [],
      "payable": false,
      "stateMutability": "nonpayable",
      "type": "function"
    },
    {
      "inputs": [],
      "payable": false,
      "stateMutability": "nonpayable",
      "type": "constructor"
    },
    {
      "payable": true,
      "stateMutability": "payable",
      "type": "fallback"
    }
  ],
  "bytecode": "0x606060405234156200001057600080fd5b336000806101000a81548173ffffffffffffffffffffffffffffffffffffffff021916908373ffffffffffffffffffffffffffffffffffffffff1602179055506202a30042016001819055506000600e60006101000a81548160ff021916908315150217905550606060405190810160405280604081526020017f5768617420697320746865206e6574776f726b204944206e756d626572206f6681526020017f20746865207075626c696320657468657265756d20626c6f636b636861696e3f81525060026000600681101515620000e557fe5b019080519060200190620000fb929190620005cc565b507fc89efdaa54c0f20c7adf612882df0950f5a951637e0307cdcb4c672f298b8bc6600102600860006006811015156200013157fe5b018160001916905550606060405190810160405280602b81526020017f57686174206973206675656c206f6620746865206574686572756d206e65747781526020017f6f726b2063616c6c65643f00000000000000000000000000000000000000000081525060026001600681101515620001a857fe5b019080519060200190620001be929190620005cc565b507f4498c2139ad6cf2beef3ae7bec34c4856d471c8680dfd28d553f117df74df6b760010260086001600681101515620001f457fe5b018160001916905550606060405190810160405280603881526020017f5768617420697320746865206e616d65206f6620746865204a6176615363726981526020017f707420537461636b2064617070206672616d65776f726b3f00000000000000008152506002806006811015156200026a57fe5b01908051906020019062000280929190620005cc565b507f28610e27d085e348e6ebd0da2c982947eddf7d308b82e951a896432cdac99a7460010260086002600681101515620002b657fe5b01816000191690555060a060405190810160405280607581526020017f5768617420697320746865206e616d65206f6620746865206e616d65206f662081526020017f736f667477617265207468617420616c6c6f777320796f7520746f206465706c81526020017f6f7920616e6420646576656c6f706d656e7420626c6f636b636861696e206f6e81526020017f20796f7572206c6f63616c20636f6d70757465723f0000000000000000000000815250600260036006811015156200037957fe5b0190805190602001906200038f929190620005cc565b507f0bdc38f1a57daae7b3c874f2d50314c08c68bd340dd018c1072ee23f3a6d72c060010260086003600681101515620003c557fe5b018160001916905550608060405190810160405280605a81526020017f5768617420697320746865206f66206d61696e20736d61727420636f6e74726181526020017f6374696e67206c616e6775616765206f6e207468652067656e6572616c20707581526020017f72706f736520657468657265756d20626c6f636b636861696e3f000000000000815250600260046006811015156200046257fe5b01908051906020019062000478929190620005cc565b507fa477d97b122e6356d32a064f9ee824230d42d04c7d66d8e7d125a091a42b0b2560010260086004600681101515620004ae57fe5b01816000191690555060a060405190810160405280607b81526020017f5768617420697320746865206e616d65206f6620746865206368726f6d65206581526020017f7874656e73696f6e207468617420616c6c6f777320796f7520746f206163636581526020017f73732077656233206f626a65637420746f2062726f61646361737420746f207481526020017f6865207075626c696320657468657265756d206e6574776f726b3f0000000000815250600260056006811015156200057157fe5b01908051906020019062000587929190620005cc565b507f69edc0ff6c1e084ebd1295782a6c284c57eda43f402b6ecc23762b931681288860010260086005600681101515620005bd57fe5b0181600019169055506200067b565b828054600181600116156101000203166002900490600052602060002090601f016020900481019282601f106200060f57805160ff191683800117855562000640565b8280016001018555821562000640579182015b828111156200063f57825182559160200191906001019062000622565b5b5090506200064f919062000653565b5090565b6200067891905b80821115620006745760008160009055506001016200065a565b5090565b90565b6111b1806200068b6000396000f30060606040526004361061008e576000357c0100000000000000000000000000000000000000000000000000000000900463ffffffff16806312a08e9f1461009057806315f0f7351461025457806331b1b978146102d257806349a1837b1461036e578063b4594c3614610532578063e834a8341461055b578063f1dfd6a914610588578063fa89401a14610631575b005b341561009b57600080fd5b61023a600480803590602001908201803590602001908080601f0160208091040260200160405190810160405280939291908181526020018383808284378201915050505050509190803590602001908201803590602001908080601f0160208091040260200160405190810160405280939291908181526020018383808284378201915050505050509190803590602001908201803590602001908080601f0160208091040260200160405190810160405280939291908181526020018383808284378201915050505050509190803590602001908201803590602001908080601f0160208091040260200160405190810160405280939291908181526020018383808284378201915050505050509190803590602001908201803590602001908080601f0160208091040260200160405190810160405280939291908181526020018383808284378201915050505050509190803590602001908201803590602001908080601f0160208091040260200160405190810160405280939291908181526020018383808284378201915050505050509190505061066a565b604051808215151515815260200191505060405180910390f35b341561025f57600080fd5b6102b8600480803590602001909190803590602001908201803590602001908080601f01602080910402602001604051908101604052809392919081815260200183838082843782019150505050505091905050610a53565b604051808215151515815260200191505060405180910390f35b34156102dd57600080fd5b6102f36004808035906020019091905050610adf565b6040518080602001828103825283818151815260200191508051906020019080838360005b83811015610333578082015181840152602081019050610318565b50505050905090810190601f1680156103605780820380516001836020036101000a031916815260200191505b509250505060405180910390f35b341561037957600080fd5b610518600480803590602001908201803590602001908080601f0160208091040260200160405190810160405280939291908181526020018383808284378201915050505050509190803590602001908201803590602001908080601f0160208091040260200160405190810160405280939291908181526020018383808284378201915050505050509190803590602001908201803590602001908080601f0160208091040260200160405190810160405280939291908181526020018383808284378201915050505050509190803590602001908201803590602001908080601f0160208091040260200160405190810160405280939291908181526020018383808284378201915050505050509190803590602001908201803590602001908080601f0160208091040260200160405190810160405280939291908181526020018383808284378201915050505050509190803590602001908201803590602001908080601f01602080910402602001604051908101604052809392919081815260200183838082843782019150505050505091905050610b91565b604051808215151515815260200191505060405180910390f35b341561053d57600080fd5b610545610ed7565b6040518082815260200191505060405180910390f35b341561056657600080fd5b61056e610ee0565b604051808215151515815260200191505060405180910390f35b341561059357600080fd5b61062f600480803590602001908201803590602001908080601f0160208091040260200160405190810160405280939291908181526020018383808284378201915050505050509190803590602001908201803590602001908080601f01602080910402602001604051908101604052809392919081815260200183838082843782019150505050505091908035906020019091905050610ef3565b005b341561063c57600080fd5b610668600480803573ffffffffffffffffffffffffffffffffffffffff16906020019091905050610ff3565b005b600060011515600e60009054906101000a900460ff1615151415151561068f57600080fd5b866040518082805190602001908083835b6020831015156106c557805182526020820191506020810190506020830392506106a0565b6001836020036101000a0380198251168184511680821785525050505050509050019150506040518091039020600019166008600060068110151561070657fe5b01546000191614151561071857600080fd5b856040518082805190602001908083835b60208310151561074e5780518252602082019150602081019050602083039250610729565b6001836020036101000a0380198251168184511680821785525050505050509050019150506040518091039020600019166008600160068110151561078f57fe5b0154600019161415156107a157600080fd5b846040518082805190602001908083835b6020831015156107d757805182526020820191506020810190506020830392506107b2565b6001836020036101000a0380198251168184511680821785525050505050509050019150506040518091039020600019166008600260068110151561081857fe5b01546000191614151561082a57600080fd5b836040518082805190602001908083835b602083101515610860578051825260208201915060208101905060208303925061083b565b6001836020036101000a038019825116818451168082178552505050505050905001915050604051809103902060001916600860036006811015156108a157fe5b0154600019161415156108b357600080fd5b826040518082805190602001908083835b6020831015156108e957805182526020820191506020810190506020830392506108c4565b6001836020036101000a0380198251168184511680821785525050505050509050019150506040518091039020600019166008600460068110151561092a57fe5b01546000191614151561093c57600080fd5b816040518082805190602001908083835b602083101515610972578051825260208201915060208101905060208303925061094d565b6001836020036101000a038019825116818451168082178552505050505050905001915050604051809103902060001916600860056006811015156109b357fe5b0154600019161415156109c557600080fd5b6001600e60006101000a81548160ff0219169083151502179055503373ffffffffffffffffffffffffffffffffffffffff166108fc3073ffffffffffffffffffffffffffffffffffffffff16319081150290604051600060405180830381858888f193505050501515610a3757600080fd5b600e60009054906101000a900460ff1690509695505050505050565b600080826040518082805190602001908083835b602083101515610a8c5780518252602082019150602081019050602083039250610a67565b6001836020036101000a038019825116818451168082178552505050505050905001915050604051809103902090508060001916600885600681101515610acf57fe5b0154600019161491505092915050565b600281600681101515610aee57fe5b016000915090508054600181600116156101000203166002900480601f016020809104026020016040519081016040528092919081815260200182805460018160011615610100020316600290048015610b895780601f10610b5e57610100808354040283529160200191610b89565b820191906000526020600020905b815481529060010190602001808311610b6c57829003601f168201915b505050505081565b6000866040518082805190602001908083835b602083101515610bc95780518252602082019150602081019050602083039250610ba4565b6001836020036101000a03801982511681845116808217855250505050505090500191505060405180910390206000191660086000600681101515610c0a57fe5b015460001916141515610c1c57600080fd5b856040518082805190602001908083835b602083101515610c525780518252602082019150602081019050602083039250610c2d565b6001836020036101000a03801982511681845116808217855250505050505090500191505060405180910390206000191660086001600681101515610c9357fe5b015460001916141515610ca557600080fd5b846040518082805190602001908083835b602083101515610cdb5780518252602082019150602081019050602083039250610cb6565b6001836020036101000a03801982511681845116808217855250505050505090500191505060405180910390206000191660086002600681101515610d1c57fe5b015460001916141515610d2e57600080fd5b836040518082805190602001908083835b602083101515610d645780518252602082019150602081019050602083039250610d3f565b6001836020036101000a03801982511681845116808217855250505050505090500191505060405180910390206000191660086003600681101515610da557fe5b015460001916141515610db757600080fd5b826040518082805190602001908083835b602083101515610ded5780518252602082019150602081019050602083039250610dc8565b6001836020036101000a03801982511681845116808217855250505050505090500191505060405180910390206000191660086004600681101515610e2e57fe5b015460001916141515610e4057600080fd5b816040518082805190602001908083835b602083101515610e765780518252602082019150602081019050602083039250610e51565b6001836020036101000a03801982511681845116808217855250505050505090500191505060405180910390206000191660086005600681101515610eb757fe5b015460001916141515610ec957600080fd5b600190509695505050505050565b60006006905090565b600e60009054906101000a900460ff1681565b6000809054906101000a900473ffffffffffffffffffffffffffffffffffffffff1673ffffffffffffffffffffffffffffffffffffffff163373ffffffffffffffffffffffffffffffffffffffff16141515610f4e57600080fd5b82600282600681101515610f5e57fe5b019080519060200190610f729291906110e0565b50816040518082805190602001908083835b602083101515610fa95780518252602082019150602081019050602083039250610f84565b6001836020036101000a0380198251168184511680821785525050505050509050019150506040518091039020600882600681101515610fe557fe5b018160001916905550505050565b6000809054906101000a900473ffffffffffffffffffffffffffffffffffffffff1673ffffffffffffffffffffffffffffffffffffffff163373ffffffffffffffffffffffffffffffffffffffff1614151561104e57600080fd5b60011515600e60009054906101000a900460ff1615151415151561107157600080fd5b62015180600154014211151561108657600080fd5b8073ffffffffffffffffffffffffffffffffffffffff166108fc3073ffffffffffffffffffffffffffffffffffffffff16319081150290604051600060405180830381858888f1935050505015156110dd57600080fd5b50565b828054600181600116156101000203166002900490600052602060002090601f016020900481019282601f1061112157805160ff191683800117855561114f565b8280016001018555821561114f579182015b8281111561114e578251825591602001919060010190611133565b5b50905061115c9190611160565b5090565b61118291905b8082111561117e576000816000905550600101611166565b5090565b905600a165627a7a72305820dbb14d4f38f2ba3e4e14d8727d9a8cc10e4a9974facf70fbe24b3cb1d07c31420029",
  "source": "pragma solidity ^0.4.18;\n\ncontract Quiz {\n    address private owner;\n    uint256 private expires;\n\n    string[6] public questions;\n    bytes32[6] private answers;\n\n    bool public claimed;\n\n    function Quiz() public {\n        owner = msg.sender;\n        expires = now + 2 days;\n        claimed = false;\n\n        questions[0] = \"What is the network ID number of the public ethereum blockchain?\";\n        answers[0] = 0xc89efdaa54c0f20c7adf612882df0950f5a951637e0307cdcb4c672f298b8bc6;\n\n        questions[1] = \"What is fuel of the etherum network called?\";\n        answers[1] = 0x4498c2139ad6cf2beef3ae7bec34c4856d471c8680dfd28d553f117df74df6b7;\n        \n        questions[2] = \"What is the name of the JavaScript Stack dapp framework?\";\n        answers[2] = 0x28610e27d085e348e6ebd0da2c982947eddf7d308b82e951a896432cdac99a74;\n        \n        questions[3] = \"What is the name of the name of software that allows you to deploy and development blockchain on your local computer?\";\n        answers[3] = 0x0bdc38f1a57daae7b3c874f2d50314c08c68bd340dd018c1072ee23f3a6d72c0;\n        \n        questions[4] = \"What is the of main smart contracting language on the general purpose ethereum blockchain?\";\n        answers[4] = 0xa477d97b122e6356d32a064f9ee824230d42d04c7d66d8e7d125a091a42b0b25;\n        \n        questions[5] = \"What is the name of the chrome extension that allows you to access web3 object to broadcast to the public ethereum network?\";\n        answers[5] = 0x69edc0ff6c1e084ebd1295782a6c284c57eda43f402b6ecc23762b9316812888;\n\n    }\n\n    function numberOfQuestions() public constant returns (uint256) {\n        return questions.length;\n    }\n\n    function updateQuestionAndAnswer(string question, bytes answer, uint index) public onlyOwner {\n        questions[index] = question;\n        answers[index] = keccak256(answer);\n    }\n\n    function checkAnswer(uint index, string answer) public constant returns(bool) {\n        bytes32 hashedAnswer = keccak256(answer);\n        return answers[index] == hashedAnswer;\n    }\n\n    function checkAllAnswers(string a0, string a1, string a2, string a3, string a4, string a5) public constant returns(bool) {\n        require(answers[0] == keccak256(a0));\n        require(answers[1] == keccak256(a1));\n        require(answers[2] == keccak256(a2));\n        require(answers[3] == keccak256(a3));\n        require(answers[4] == keccak256(a4));\n        require(answers[5] == keccak256(a5));\n        return true;\n    }\n\n    function submitYourAnswers(string a0, string a1, string a2, string a3, string a4, string a5) public returns(bool) {\n        require(claimed != true);\n\n        require(answers[0] == keccak256(a0));\n        require(answers[1] == keccak256(a1));\n        require(answers[2] == keccak256(a2));\n        require(answers[3] == keccak256(a3));\n        require(answers[4] == keccak256(a4));\n        require(answers[5] == keccak256(a5));\n\n        claimed = true;\n        msg.sender.transfer(this.balance);\n        return claimed;\n    }\n\n    function () public payable {\n    }\n\n    function refund(address to) public onlyOwner {\n        require(claimed != true);\n        require(now > expires + 1 days);\n        \n        to.transfer(this.balance);\n    }\n\n    modifier onlyOwner() {\n        require(msg.sender == owner);\n        _;\n    }\n    \n    \n}",
  "sourcePath": "/Users/thomasmiller/projects/unionbank/quiz/contracts/Quiz.sol",
  "compiler": {
    "name": "solc",
    "version": "0.4.18+commit.9cf6e910.Emscripten.clang"
  },
  "schemaVersion": "1.0.1",
  "updatedAt": "2018-01-25T12:59:21.526Z"
}